{
  "_format": "hh-sol-artifact-1",
  "contractName": "StknICO",
  "sourceName": "contracts/ICO.sol",
  "abi": [
    {
      "inputs": [
        {
          "internalType": "address payable",
          "name": "_icoWallet",
          "type": "address"
        },
        {
          "internalType": "address",
          "name": "_token",
          "type": "address"
        },
        {
          "internalType": "uint256",
          "name": "_startTime",
          "type": "uint256"
        },
        {
          "internalType": "uint256",
          "name": "_endTime",
          "type": "uint256"
        }
      ],
      "stateMutability": "nonpayable",
      "type": "constructor"
    },
    {
      "anonymous": false,
      "inputs": [
        {
          "indexed": false,
          "internalType": "address",
          "name": "from",
          "type": "address"
        },
        {
          "indexed": false,
          "internalType": "uint256",
          "name": "value",
          "type": "uint256"
        }
      ],
      "name": "Claim",
      "type": "event"
    },
    {
      "anonymous": false,
      "inputs": [
        {
          "indexed": true,
          "internalType": "address",
          "name": "from",
          "type": "address"
        },
        {
          "indexed": false,
          "internalType": "uint256",
          "name": "value",
          "type": "uint256"
        }
      ],
      "name": "Invest",
      "type": "event"
    },
    {
      "anonymous": false,
      "inputs": [
        {
          "indexed": false,
          "internalType": "uint256",
          "name": "amount",
          "type": "uint256"
        }
      ],
      "name": "OwnerWithdraw",
      "type": "event"
    },
    {
      "anonymous": false,
      "inputs": [
        {
          "indexed": false,
          "internalType": "address",
          "name": "to",
          "type": "address"
        },
        {
          "indexed": false,
          "internalType": "uint256",
          "name": "amount",
          "type": "uint256"
        },
        {
          "indexed": false,
          "internalType": "uint256",
          "name": "time",
          "type": "uint256"
        }
      ],
      "name": "TokenBurn",
      "type": "event"
    },
    {
      "anonymous": false,
      "inputs": [
        {
          "indexed": false,
          "internalType": "address",
          "name": "from",
          "type": "address"
        },
        {
          "indexed": false,
          "internalType": "uint256",
          "name": "value",
          "type": "uint256"
        }
      ],
      "name": "Withdraw",
      "type": "event"
    },
    {
      "inputs": [],
      "name": "ICOWallet",
      "outputs": [
        {
          "internalType": "address payable",
          "name": "",
          "type": "address"
        }
      ],
      "stateMutability": "view",
      "type": "function"
    },
    {
      "inputs": [
        {
          "internalType": "address payable",
          "name": "_newICOWallet",
          "type": "address"
        }
      ],
      "name": "changeICOWallet",
      "outputs": [],
      "stateMutability": "nonpayable",
      "type": "function"
    },
    {
      "inputs": [
        {
          "internalType": "address",
          "name": "_newOwner",
          "type": "address"
        }
      ],
      "name": "changeOwner",
      "outputs": [],
      "stateMutability": "nonpayable",
      "type": "function"
    },
    {
      "inputs": [],
      "name": "claim",
      "outputs": [],
      "stateMutability": "nonpayable",
      "type": "function"
    },
    {
      "inputs": [],
      "name": "hardCap",
      "outputs": [
        {
          "internalType": "uint256",
          "name": "",
          "type": "uint256"
        }
      ],
      "stateMutability": "view",
      "type": "function"
    },
    {
      "inputs": [],
      "name": "icoEndTime",
      "outputs": [
        {
          "internalType": "uint256",
          "name": "",
          "type": "uint256"
        }
      ],
      "stateMutability": "view",
      "type": "function"
    },
    {
      "inputs": [],
      "name": "icoStartTime",
      "outputs": [
        {
          "internalType": "uint256",
          "name": "",
          "type": "uint256"
        }
      ],
      "stateMutability": "view",
      "type": "function"
    },
    {
      "inputs": [],
      "name": "invest",
      "outputs": [],
      "stateMutability": "payable",
      "type": "function"
    },
    {
      "inputs": [
        {
          "internalType": "address",
          "name": "",
          "type": "address"
        }
      ],
      "name": "investedAmountOf",
      "outputs": [
        {
          "internalType": "uint256",
          "name": "",
          "type": "uint256"
        }
      ],
      "stateMutability": "view",
      "type": "function"
    },
    {
      "inputs": [],
      "name": "maxInvestment",
      "outputs": [
        {
          "internalType": "uint256",
          "name": "",
          "type": "uint256"
        }
      ],
      "stateMutability": "view",
      "type": "function"
    },
    {
      "inputs": [],
      "name": "minInvestment",
      "outputs": [
        {
          "internalType": "uint256",
          "name": "",
          "type": "uint256"
        }
      ],
      "stateMutability": "view",
      "type": "function"
    },
    {
      "inputs": [],
      "name": "owner",
      "outputs": [
        {
          "internalType": "address",
          "name": "",
          "type": "address"
        }
      ],
      "stateMutability": "view",
      "type": "function"
    },
    {
      "inputs": [],
      "name": "ownerWithdraw",
      "outputs": [],
      "stateMutability": "nonpayable",
      "type": "function"
    },
    {
      "inputs": [],
      "name": "softCap",
      "outputs": [
        {
          "internalType": "uint256",
          "name": "",
          "type": "uint256"
        }
      ],
      "stateMutability": "view",
      "type": "function"
    },
    {
      "inputs": [],
      "name": "token",
      "outputs": [
        {
          "internalType": "contract IERC20",
          "name": "",
          "type": "address"
        }
      ],
      "stateMutability": "view",
      "type": "function"
    },
    {
      "inputs": [],
      "name": "tokenPrice",
      "outputs": [
        {
          "internalType": "uint256",
          "name": "",
          "type": "uint256"
        }
      ],
      "stateMutability": "view",
      "type": "function"
    },
    {
      "inputs": [],
      "name": "withdraw",
      "outputs": [],
      "stateMutability": "nonpayable",
      "type": "function"
    },
    {
      "stateMutability": "payable",
      "type": "receive"
    }
  ],
  "bytecode": "0x6080604052655af3107a40006003556706f05b59d3b2000060045567016345785d8a000060055566038d7ea4c680006006556729a2241af62c00006007553480156200004a57600080fd5b50604051620016cc380380620016cc833981810160405281019062000070919062000234565b336000806101000a81548173ffffffffffffffffffffffffffffffffffffffff021916908373ffffffffffffffffffffffffffffffffffffffff16021790555083600160006101000a81548173ffffffffffffffffffffffffffffffffffffffff021916908373ffffffffffffffffffffffffffffffffffffffff160217905550816008819055508060098190555082600260006101000a81548173ffffffffffffffffffffffffffffffffffffffff021916908373ffffffffffffffffffffffffffffffffffffffff16021790555050505050620002a6565b600080fd5b600073ffffffffffffffffffffffffffffffffffffffff82169050919050565b60006200017c826200014f565b9050919050565b6200018e816200016f565b81146200019a57600080fd5b50565b600081519050620001ae8162000183565b92915050565b6000620001c1826200014f565b9050919050565b620001d381620001b4565b8114620001df57600080fd5b50565b600081519050620001f381620001c8565b92915050565b6000819050919050565b6200020e81620001f9565b81146200021a57600080fd5b50565b6000815190506200022e8162000203565b92915050565b600080600080608085870312156200025157620002506200014a565b5b600062000261878288016200019d565b94505060206200027487828801620001e2565b935050604062000287878288016200021d565b92505060606200029a878288016200021d565b91505092959194509250565b61141680620002b66000396000f3fe6080604052600436106101005760003560e01c80638ac2c68011610095578063a7c3d71b11610064578063a7c3d71b146102e2578063ae764df31461030d578063e8b5e51f14610338578063fb86a40414610342578063fc0c546a1461036d57610107565b80638ac2c680146102385780638da5cb5b14610263578063906a26e01461028e578063a6f9dae1146102b957610107565b80634311de8f116100d15780634311de8f146101b45780634e71d92d146101cb5780637e1055b6146101e25780637ff9b5961461020d57610107565b80622e13161461010c578062f53e69146101375780631aae3460146101605780633ccfd60b1461019d57610107565b3661010757005b600080fd5b34801561011857600080fd5b50610121610398565b60405161012e9190610cfa565b60405180910390f35b34801561014357600080fd5b5061015e60048036038101906101599190610d78565b61039e565b005b34801561016c57600080fd5b5061018760048036038101906101829190610de3565b610470565b6040516101949190610cfa565b60405180910390f35b3480156101a957600080fd5b506101b2610488565b005b3480156101c057600080fd5b506101c961064e565b005b3480156101d757600080fd5b506101e0610801565b005b3480156101ee57600080fd5b506101f7610992565b6040516102049190610cfa565b60405180910390f35b34801561021957600080fd5b50610222610998565b60405161022f9190610cfa565b60405180910390f35b34801561024457600080fd5b5061024d61099e565b60405161025a9190610cfa565b60405180910390f35b34801561026f57600080fd5b506102786109a4565b6040516102859190610e1f565b60405180910390f35b34801561029a57600080fd5b506102a36109c8565b6040516102b09190610cfa565b60405180910390f35b3480156102c557600080fd5b506102e060048036038101906102db9190610de3565b6109ce565b005b3480156102ee57600080fd5b506102f7610a9f565b6040516103049190610cfa565b60405180910390f35b34801561031957600080fd5b50610322610aa5565b60405161032f9190610e49565b60405180910390f35b610340610acb565b005b34801561034e57600080fd5b50610357610cb5565b6040516103649190610cfa565b60405180910390f35b34801561037957600080fd5b50610382610cbb565b60405161038f9190610ec3565b60405180910390f35b60075481565b60008054906101000a900473ffffffffffffffffffffffffffffffffffffffff1673ffffffffffffffffffffffffffffffffffffffff163373ffffffffffffffffffffffffffffffffffffffff161461042c576040517f08c379a000000000000000000000000000000000000000000000000000000000815260040161042390610f3b565b60405180910390fd5b80600160006101000a81548173ffffffffffffffffffffffffffffffffffffffff021916908373ffffffffffffffffffffffffffffffffffffffff16021790555050565b600a6020528060005260406000206000915090505481565b60004790506005548110801561049f575060095442115b6104de576040517f08c379a00000000000000000000000000000000000000000000000000000000081526004016104d590610fa7565b60405180910390fd5b6000600a60003373ffffffffffffffffffffffffffffffffffffffff1673ffffffffffffffffffffffffffffffffffffffff16815260200190815260200160002054905060008111610565576040517f08c379a000000000000000000000000000000000000000000000000000000000815260040161055c90611013565b60405180910390fd5b478111156105a8576040517f08c379a000000000000000000000000000000000000000000000000000000000815260040161059f9061107f565b60405180910390fd5b3373ffffffffffffffffffffffffffffffffffffffff16816040516105cc906110d0565b60006040518083038185875af1925050503d8060008114610609576040519150601f19603f3d011682016040523d82523d6000602084013e61060e565b606091505b5050507f884edad9ce6fa2440d8a54cc123490eb96d2768479d49ff9c7366125a942436433826040516106429291906110e5565b60405180910390a15050565b60008054906101000a900473ffffffffffffffffffffffffffffffffffffffff1673ffffffffffffffffffffffffffffffffffffffff163373ffffffffffffffffffffffffffffffffffffffff16146106dc576040517f08c379a00000000000000000000000000000000000000000000000000000000081526004016106d390610f3b565b60405180910390fd5b6000479050600554811180156106f3575060095442115b806106ff575060045481115b61073e576040517f08c379a00000000000000000000000000000000000000000000000000000000081526004016107359061115a565b60405180910390fd5b60008054906101000a900473ffffffffffffffffffffffffffffffffffffffff1673ffffffffffffffffffffffffffffffffffffffff1681604051610782906110d0565b60006040518083038185875af1925050503d80600081146107bf576040519150601f19603f3d011682016040523d82523d6000602084013e6107c4565b606091505b5050507fa20809e697380eaea0fd13bf4d14b00e2ef29559ef361501189d3be2e9b0ec85816040516107f69190610cfa565b60405180910390a150565b600047905060055481118015610818575060095442115b80610824575060045481115b610863576040517f08c379a000000000000000000000000000000000000000000000000000000000815260040161085a9061115a565b60405180910390fd5b6000600354600a60003373ffffffffffffffffffffffffffffffffffffffff1673ffffffffffffffffffffffffffffffffffffffff168152602001908152602001600020546108b291906111a9565b9050600260009054906101000a900473ffffffffffffffffffffffffffffffffffffffff1673ffffffffffffffffffffffffffffffffffffffff1663a9059cbb33836040518363ffffffff1660e01b81526004016109119291906110e5565b6020604051808303816000875af1158015610930573d6000803e3d6000fd5b505050506040513d601f19601f82011682018060405250810190610954919061123b565b507f47cee97cb7acd717b3c0aa1435d004cd5b3c8c57d70dbceb4e4458bbd60e39d433826040516109869291906110e5565b60405180910390a15050565b60095481565b60035481565b60065481565b60008054906101000a900473ffffffffffffffffffffffffffffffffffffffff1681565b60055481565b60008054906101000a900473ffffffffffffffffffffffffffffffffffffffff1673ffffffffffffffffffffffffffffffffffffffff163373ffffffffffffffffffffffffffffffffffffffff1614610a5c576040517f08c379a0000000000000000000000000000000000000000000000000000000008152600401610a5390610f3b565b60405180910390fd5b806000806101000a81548173ffffffffffffffffffffffffffffffffffffffff021916908373ffffffffffffffffffffffffffffffffffffffff16021790555050565b60085481565b600160009054906101000a900473ffffffffffffffffffffffffffffffffffffffff1681565b6008544210158015610ade575060095442105b610b1d576040517f08c379a0000000000000000000000000000000000000000000000000000000008152600401610b14906112b4565b60405180910390fd5b60065434101580610b7a575060075434600a60003373ffffffffffffffffffffffffffffffffffffffff1673ffffffffffffffffffffffffffffffffffffffff16815260200190815260200160002054610b7791906112d4565b11155b610bb9576040517f08c379a0000000000000000000000000000000000000000000000000000000008152600401610bb090611354565b60405180910390fd5b60004790506004543482610bcd91906112d4565b1115610c0e576040517f08c379a0000000000000000000000000000000000000000000000000000000008152600401610c05906113c0565b60405180910390fd5b34600a60003373ffffffffffffffffffffffffffffffffffffffff1673ffffffffffffffffffffffffffffffffffffffff1681526020019081526020016000206000828254610c5d91906112d4565b925050819055503373ffffffffffffffffffffffffffffffffffffffff167fd90d253a9de34d2fdd5a75ae49ea17fcb43af32fc8ea08cc6d2341991dd3872e34604051610caa9190610cfa565b60405180910390a250565b60045481565b600260009054906101000a900473ffffffffffffffffffffffffffffffffffffffff1681565b6000819050919050565b610cf481610ce1565b82525050565b6000602082019050610d0f6000830184610ceb565b92915050565b600080fd5b600073ffffffffffffffffffffffffffffffffffffffff82169050919050565b6000610d4582610d1a565b9050919050565b610d5581610d3a565b8114610d6057600080fd5b50565b600081359050610d7281610d4c565b92915050565b600060208284031215610d8e57610d8d610d15565b5b6000610d9c84828501610d63565b91505092915050565b6000610db082610d1a565b9050919050565b610dc081610da5565b8114610dcb57600080fd5b50565b600081359050610ddd81610db7565b92915050565b600060208284031215610df957610df8610d15565b5b6000610e0784828501610dce565b91505092915050565b610e1981610da5565b82525050565b6000602082019050610e346000830184610e10565b92915050565b610e4381610d3a565b82525050565b6000602082019050610e5e6000830184610e3a565b92915050565b6000819050919050565b6000610e89610e84610e7f84610d1a565b610e64565b610d1a565b9050919050565b6000610e9b82610e6e565b9050919050565b6000610ead82610e90565b9050919050565b610ebd81610ea2565b82525050565b6000602082019050610ed86000830184610eb4565b92915050565b600082825260208201905092915050565b7f4f4e4c595f4f574e455200000000000000000000000000000000000000000000600082015250565b6000610f25600a83610ede565b9150610f3082610eef565b602082019050919050565b60006020820190508181036000830152610f5481610f18565b9050919050565b7f4e4f545f574954484452415741424c4500000000000000000000000000000000600082015250565b6000610f91601083610ede565b9150610f9c82610f5b565b602082019050919050565b60006020820190508181036000830152610fc081610f84565b9050919050565b7f5a45524f5f4445504f5349540000000000000000000000000000000000000000600082015250565b6000610ffd600c83610ede565b915061100882610fc7565b602082019050919050565b6000602082019050818103600083015261102c81610ff0565b9050919050565b7f4558434545445f544f54414c5f4445504f534954000000000000000000000000600082015250565b6000611069601483610ede565b915061107482611033565b602082019050919050565b600060208201905081810360008301526110988161105c565b9050919050565b600081905092915050565b50565b60006110ba60008361109f565b91506110c5826110aa565b600082019050919050565b60006110db826110ad565b9150819050919050565b60006040820190506110fa6000830185610e10565b6111076020830184610ceb565b9392505050565b7f4e4f545f434c41494d41424c4500000000000000000000000000000000000000600082015250565b6000611144600d83610ede565b915061114f8261110e565b602082019050919050565b6000602082019050818103600083015261117381611137565b9050919050565b7f4e487b7100000000000000000000000000000000000000000000000000000000600052601160045260246000fd5b60006111b482610ce1565b91506111bf83610ce1565b9250817fffffffffffffffffffffffffffffffffffffffffffffffffffffffffffffffff04831182151516156111f8576111f761117a565b5b828202905092915050565b60008115159050919050565b61121881611203565b811461122357600080fd5b50565b6000815190506112358161120f565b92915050565b60006020828403121561125157611250610d15565b5b600061125f84828501611226565b91505092915050565b7f49434f5f4e4f545f494e5f50524f475245535300000000000000000000000000600082015250565b600061129e601383610ede565b91506112a982611268565b602082019050919050565b600060208201905081810360008301526112cd81611291565b9050919050565b60006112df82610ce1565b91506112ea83610ce1565b92508282019050808211156113025761130161117a565b5b92915050565b7f436865636b204d696e20616e64204d617820496e766573746d656e7400000000600082015250565b600061133e601c83610ede565b915061134982611308565b602082019050919050565b6000602082019050818103600083015261136d81611331565b9050919050565b7f53656e642077697468696e20686172646361702072616e676500000000000000600082015250565b60006113aa601983610ede565b91506113b582611374565b602082019050919050565b600060208201905081810360008301526113d98161139d565b905091905056fea2646970667358221220bf5cbd617a6d1e08a5224a94dea19dc71345f1f4bfba50d6a9cb125bcf52d0f264736f6c63430008100033",
  "linkReferences": {},
  "deployedLinkReferences": {}
}