{
  "_format": "hh-sol-artifact-1",
  "contractName": "StknICO",
  "sourceName": "contracts/ICO.sol",
  "abi": [
    {
      "inputs": [
        {
          "internalType": "address",
          "name": "_token",
          "type": "address"
        },
        {
          "internalType": "uint256",
          "name": "_startTime",
          "type": "uint256"
        },
        {
          "internalType": "uint256",
          "name": "_endTime",
          "type": "uint256"
        }
      ],
      "stateMutability": "nonpayable",
      "type": "constructor"
    },
    {
      "anonymous": false,
      "inputs": [
        {
          "indexed": false,
          "internalType": "address",
          "name": "from",
          "type": "address"
        },
        {
          "indexed": false,
          "internalType": "uint256",
          "name": "value",
          "type": "uint256"
        }
      ],
      "name": "Claim",
      "type": "event"
    },
    {
      "anonymous": false,
      "inputs": [
        {
          "indexed": true,
          "internalType": "address",
          "name": "from",
          "type": "address"
        },
        {
          "indexed": false,
          "internalType": "uint256",
          "name": "value",
          "type": "uint256"
        }
      ],
      "name": "Deposit",
      "type": "event"
    },
    {
      "anonymous": false,
      "inputs": [
        {
          "indexed": false,
          "internalType": "uint256",
          "name": "amount",
          "type": "uint256"
        }
      ],
      "name": "OwnerWithdraw",
      "type": "event"
    },
    {
      "anonymous": false,
      "inputs": [
        {
          "indexed": false,
          "internalType": "address",
          "name": "to",
          "type": "address"
        },
        {
          "indexed": false,
          "internalType": "uint256",
          "name": "amount",
          "type": "uint256"
        },
        {
          "indexed": false,
          "internalType": "uint256",
          "name": "time",
          "type": "uint256"
        }
      ],
      "name": "TokenBurn",
      "type": "event"
    },
    {
      "anonymous": false,
      "inputs": [
        {
          "indexed": false,
          "internalType": "address",
          "name": "from",
          "type": "address"
        },
        {
          "indexed": false,
          "internalType": "uint256",
          "name": "value",
          "type": "uint256"
        }
      ],
      "name": "Withdraw",
      "type": "event"
    },
    {
      "inputs": [],
      "name": "ICOWallet",
      "outputs": [
        {
          "internalType": "address payable",
          "name": "",
          "type": "address"
        }
      ],
      "stateMutability": "view",
      "type": "function"
    },
    {
      "inputs": [
        {
          "internalType": "address",
          "name": "_newOwner",
          "type": "address"
        }
      ],
      "name": "changeOwner",
      "outputs": [],
      "stateMutability": "nonpayable",
      "type": "function"
    },
    {
      "inputs": [],
      "name": "claim",
      "outputs": [],
      "stateMutability": "nonpayable",
      "type": "function"
    },
    {
      "inputs": [],
      "name": "deposit",
      "outputs": [],
      "stateMutability": "payable",
      "type": "function"
    },
    {
      "inputs": [
        {
          "internalType": "address",
          "name": "",
          "type": "address"
        }
      ],
      "name": "depositedAmountOf",
      "outputs": [
        {
          "internalType": "uint256",
          "name": "",
          "type": "uint256"
        }
      ],
      "stateMutability": "view",
      "type": "function"
    },
    {
      "inputs": [],
      "name": "hardCap",
      "outputs": [
        {
          "internalType": "uint256",
          "name": "",
          "type": "uint256"
        }
      ],
      "stateMutability": "view",
      "type": "function"
    },
    {
      "inputs": [],
      "name": "icoEndTime",
      "outputs": [
        {
          "internalType": "uint256",
          "name": "",
          "type": "uint256"
        }
      ],
      "stateMutability": "view",
      "type": "function"
    },
    {
      "inputs": [],
      "name": "icoStartTime",
      "outputs": [
        {
          "internalType": "uint256",
          "name": "",
          "type": "uint256"
        }
      ],
      "stateMutability": "view",
      "type": "function"
    },
    {
      "inputs": [],
      "name": "maxInvestment",
      "outputs": [
        {
          "internalType": "uint256",
          "name": "",
          "type": "uint256"
        }
      ],
      "stateMutability": "view",
      "type": "function"
    },
    {
      "inputs": [],
      "name": "minInvestment",
      "outputs": [
        {
          "internalType": "uint256",
          "name": "",
          "type": "uint256"
        }
      ],
      "stateMutability": "view",
      "type": "function"
    },
    {
      "inputs": [],
      "name": "owner",
      "outputs": [
        {
          "internalType": "address",
          "name": "",
          "type": "address"
        }
      ],
      "stateMutability": "view",
      "type": "function"
    },
    {
      "inputs": [],
      "name": "ownerWithdraw",
      "outputs": [],
      "stateMutability": "nonpayable",
      "type": "function"
    },
    {
      "inputs": [],
      "name": "raisedAmount",
      "outputs": [
        {
          "internalType": "uint256",
          "name": "",
          "type": "uint256"
        }
      ],
      "stateMutability": "view",
      "type": "function"
    },
    {
      "inputs": [],
      "name": "softCap",
      "outputs": [
        {
          "internalType": "uint256",
          "name": "",
          "type": "uint256"
        }
      ],
      "stateMutability": "view",
      "type": "function"
    },
    {
      "inputs": [],
      "name": "token",
      "outputs": [
        {
          "internalType": "contract IERC20",
          "name": "",
          "type": "address"
        }
      ],
      "stateMutability": "view",
      "type": "function"
    },
    {
      "inputs": [],
      "name": "tokenPrice",
      "outputs": [
        {
          "internalType": "uint256",
          "name": "",
          "type": "uint256"
        }
      ],
      "stateMutability": "view",
      "type": "function"
    },
    {
      "inputs": [],
      "name": "withdraw",
      "outputs": [],
      "stateMutability": "nonpayable",
      "type": "function"
    },
    {
      "stateMutability": "payable",
      "type": "receive"
    }
  ],
  "bytecode": "0x6080604052655af3107a4000600355670de0b6b3a764000060045567016345785d8a000060055566038d7ea4c680006006556706f05b59d3b2000060075560006008553480156200004f57600080fd5b5060405162001526380380620015268339818101604052810190620000759190620001b2565b336000806101000a81548173ffffffffffffffffffffffffffffffffffffffff021916908373ffffffffffffffffffffffffffffffffffffffff1602179055508160098190555080600a8190555082600260006101000a81548173ffffffffffffffffffffffffffffffffffffffff021916908373ffffffffffffffffffffffffffffffffffffffff1602179055505050506200020e565b600080fd5b600073ffffffffffffffffffffffffffffffffffffffff82169050919050565b60006200013f8262000112565b9050919050565b620001518162000132565b81146200015d57600080fd5b50565b600081519050620001718162000146565b92915050565b6000819050919050565b6200018c8162000177565b81146200019857600080fd5b50565b600081519050620001ac8162000181565b92915050565b600080600060608486031215620001ce57620001cd6200010d565b5b6000620001de8682870162000160565b9350506020620001f1868287016200019b565b925050604062000204868287016200019b565b9150509250925092565b611308806200021e6000396000f3fe6080604052600436106101015760003560e01c8063906a26e011610095578063c59ee1dc11610064578063c59ee1dc146102d3578063d0e30db0146102fe578063f8d60d4314610308578063fb86a40414610345578063fc0c546a1461037057610108565b8063906a26e014610229578063a6f9dae114610254578063a7c3d71b1461027d578063ae764df3146102a857610108565b80637e1055b6116100d15780637e1055b61461017d5780637ff9b596146101a85780638ac2c680146101d35780638da5cb5b146101fe57610108565b80622e13161461010d5780633ccfd60b146101385780634311de8f1461014f5780634e71d92d1461016657610108565b3661010857005b600080fd5b34801561011957600080fd5b5061012261039b565b60405161012f9190610c45565b60405180910390f35b34801561014457600080fd5b5061014d6103a1565b005b34801561015b57600080fd5b5061016461056a565b005b34801561017257600080fd5b5061017b610726565b005b34801561018957600080fd5b506101926108bc565b60405161019f9190610c45565b60405180910390f35b3480156101b457600080fd5b506101bd6108c2565b6040516101ca9190610c45565b60405180910390f35b3480156101df57600080fd5b506101e86108c8565b6040516101f59190610c45565b60405180910390f35b34801561020a57600080fd5b506102136108ce565b6040516102209190610ca1565b60405180910390f35b34801561023557600080fd5b5061023e6108f2565b60405161024b9190610c45565b60405180910390f35b34801561026057600080fd5b5061027b60048036038101906102769190610ced565b6108f8565b005b34801561028957600080fd5b506102926109c9565b60405161029f9190610c45565b60405180910390f35b3480156102b457600080fd5b506102bd6109cf565b6040516102ca9190610d3b565b60405180910390f35b3480156102df57600080fd5b506102e86109f5565b6040516102f59190610c45565b60405180910390f35b6103066109fb565b005b34801561031457600080fd5b5061032f600480360381019061032a9190610ced565b610be8565b60405161033c9190610c45565b60405180910390f35b34801561035157600080fd5b5061035a610c00565b6040516103679190610c45565b60405180910390f35b34801561037c57600080fd5b50610385610c06565b6040516103929190610db5565b60405180910390f35b60075481565b476008819055506005546008541080156103bc5750600a5442115b6103fb576040517f08c379a00000000000000000000000000000000000000000000000000000000081526004016103f290610e2d565b60405180910390fd5b6000600b60003373ffffffffffffffffffffffffffffffffffffffff1673ffffffffffffffffffffffffffffffffffffffff16815260200190815260200160002054905060008111610482576040517f08c379a000000000000000000000000000000000000000000000000000000000815260040161047990610e99565b60405180910390fd5b478111156104c5576040517f08c379a00000000000000000000000000000000000000000000000000000000081526004016104bc90610f05565b60405180910390fd5b3373ffffffffffffffffffffffffffffffffffffffff16816040516104e990610f56565b60006040518083038185875af1925050503d8060008114610526576040519150601f19603f3d011682016040523d82523d6000602084013e61052b565b606091505b5050507f884edad9ce6fa2440d8a54cc123490eb96d2768479d49ff9c7366125a9424364338260405161055f929190610f6b565b60405180910390a150565b60008054906101000a900473ffffffffffffffffffffffffffffffffffffffff1673ffffffffffffffffffffffffffffffffffffffff163373ffffffffffffffffffffffffffffffffffffffff16146105f8576040517f08c379a00000000000000000000000000000000000000000000000000000000081526004016105ef90610fe0565b60405180910390fd5b476008819055506005546008541180156106135750600a5442115b806106215750600454600854115b610660576040517f08c379a00000000000000000000000000000000000000000000000000000000081526004016106579061104c565b60405180910390fd5b60008054906101000a900473ffffffffffffffffffffffffffffffffffffffff1673ffffffffffffffffffffffffffffffffffffffff166008546040516106a690610f56565b60006040518083038185875af1925050503d80600081146106e3576040519150601f19603f3d011682016040523d82523d6000602084013e6106e8565b606091505b5050507fa20809e697380eaea0fd13bf4d14b00e2ef29559ef361501189d3be2e9b0ec8560085460405161071c9190610c45565b60405180910390a1565b476008819055506005546008541180156107415750600a5442115b8061074f5750600454600854115b61078e576040517f08c379a00000000000000000000000000000000000000000000000000000000081526004016107859061104c565b60405180910390fd5b6000600354600b60003373ffffffffffffffffffffffffffffffffffffffff1673ffffffffffffffffffffffffffffffffffffffff168152602001908152602001600020546107dd919061109b565b9050600260009054906101000a900473ffffffffffffffffffffffffffffffffffffffff1673ffffffffffffffffffffffffffffffffffffffff1663a9059cbb33836040518363ffffffff1660e01b815260040161083c929190610f6b565b6020604051808303816000875af115801561085b573d6000803e3d6000fd5b505050506040513d601f19601f8201168201806040525081019061087f919061112d565b507f47cee97cb7acd717b3c0aa1435d004cd5b3c8c57d70dbceb4e4458bbd60e39d433826040516108b1929190610f6b565b60405180910390a150565b600a5481565b60035481565b60065481565b60008054906101000a900473ffffffffffffffffffffffffffffffffffffffff1681565b60055481565b60008054906101000a900473ffffffffffffffffffffffffffffffffffffffff1673ffffffffffffffffffffffffffffffffffffffff163373ffffffffffffffffffffffffffffffffffffffff1614610986576040517f08c379a000000000000000000000000000000000000000000000000000000000815260040161097d90610fe0565b60405180910390fd5b806000806101000a81548173ffffffffffffffffffffffffffffffffffffffff021916908373ffffffffffffffffffffffffffffffffffffffff16021790555050565b60095481565b600160009054906101000a900473ffffffffffffffffffffffffffffffffffffffff1681565b60085481565b6009544210158015610a0e5750600a5442105b610a4d576040517f08c379a0000000000000000000000000000000000000000000000000000000008152600401610a44906111a6565b60405180910390fd5b60065434101580610aaa575060075434600b60003373ffffffffffffffffffffffffffffffffffffffff1673ffffffffffffffffffffffffffffffffffffffff16815260200190815260200160002054610aa791906111c6565b11155b610ae9576040517f08c379a0000000000000000000000000000000000000000000000000000000008152600401610ae090611246565b60405180910390fd5b4760088190555060045434600854610b0191906111c6565b1115610b42576040517f08c379a0000000000000000000000000000000000000000000000000000000008152600401610b39906112b2565b60405180910390fd5b34600b60003373ffffffffffffffffffffffffffffffffffffffff1673ffffffffffffffffffffffffffffffffffffffff1681526020019081526020016000206000828254610b9191906111c6565b925050819055503373ffffffffffffffffffffffffffffffffffffffff167fe1fffcc4923d04b559f4d29a8bfc6cda04eb5b0d3c460751c2402c5c5cc9109c34604051610bde9190610c45565b60405180910390a2565b600b6020528060005260406000206000915090505481565b60045481565b600260009054906101000a900473ffffffffffffffffffffffffffffffffffffffff1681565b6000819050919050565b610c3f81610c2c565b82525050565b6000602082019050610c5a6000830184610c36565b92915050565b600073ffffffffffffffffffffffffffffffffffffffff82169050919050565b6000610c8b82610c60565b9050919050565b610c9b81610c80565b82525050565b6000602082019050610cb66000830184610c92565b92915050565b600080fd5b610cca81610c80565b8114610cd557600080fd5b50565b600081359050610ce781610cc1565b92915050565b600060208284031215610d0357610d02610cbc565b5b6000610d1184828501610cd8565b91505092915050565b6000610d2582610c60565b9050919050565b610d3581610d1a565b82525050565b6000602082019050610d506000830184610d2c565b92915050565b6000819050919050565b6000610d7b610d76610d7184610c60565b610d56565b610c60565b9050919050565b6000610d8d82610d60565b9050919050565b6000610d9f82610d82565b9050919050565b610daf81610d94565b82525050565b6000602082019050610dca6000830184610da6565b92915050565b600082825260208201905092915050565b7f4e4f545f574954484452415741424c4500000000000000000000000000000000600082015250565b6000610e17601083610dd0565b9150610e2282610de1565b602082019050919050565b60006020820190508181036000830152610e4681610e0a565b9050919050565b7f5a45524f5f4445504f5349540000000000000000000000000000000000000000600082015250565b6000610e83600c83610dd0565b9150610e8e82610e4d565b602082019050919050565b60006020820190508181036000830152610eb281610e76565b9050919050565b7f4558434545445f544f54414c5f4445504f534954000000000000000000000000600082015250565b6000610eef601483610dd0565b9150610efa82610eb9565b602082019050919050565b60006020820190508181036000830152610f1e81610ee2565b9050919050565b600081905092915050565b50565b6000610f40600083610f25565b9150610f4b82610f30565b600082019050919050565b6000610f6182610f33565b9150819050919050565b6000604082019050610f806000830185610c92565b610f8d6020830184610c36565b9392505050565b7f4f4e4c595f4f574e455200000000000000000000000000000000000000000000600082015250565b6000610fca600a83610dd0565b9150610fd582610f94565b602082019050919050565b60006020820190508181036000830152610ff981610fbd565b9050919050565b7f4e4f545f434c41494d41424c4500000000000000000000000000000000000000600082015250565b6000611036600d83610dd0565b915061104182611000565b602082019050919050565b6000602082019050818103600083015261106581611029565b9050919050565b7f4e487b7100000000000000000000000000000000000000000000000000000000600052601160045260246000fd5b60006110a682610c2c565b91506110b183610c2c565b9250817fffffffffffffffffffffffffffffffffffffffffffffffffffffffffffffffff04831182151516156110ea576110e961106c565b5b828202905092915050565b60008115159050919050565b61110a816110f5565b811461111557600080fd5b50565b60008151905061112781611101565b92915050565b60006020828403121561114357611142610cbc565b5b600061115184828501611118565b91505092915050565b7f49434f5f4e4f545f494e5f50524f475245535300000000000000000000000000600082015250565b6000611190601383610dd0565b915061119b8261115a565b602082019050919050565b600060208201905081810360008301526111bf81611183565b9050919050565b60006111d182610c2c565b91506111dc83610c2c565b92508282019050808211156111f4576111f361106c565b5b92915050565b7f436865636b204d696e20616e64204d617820496e766573746d656e7400000000600082015250565b6000611230601c83610dd0565b915061123b826111fa565b602082019050919050565b6000602082019050818103600083015261125f81611223565b9050919050565b7f53656e642077697468696e20686172646361702072616e676500000000000000600082015250565b600061129c601983610dd0565b91506112a782611266565b602082019050919050565b600060208201905081810360008301526112cb8161128f565b905091905056fea2646970667358221220c35943c3705256250972887aa89b82e3ba859d6dda4b5253a75ef3be708bafd264736f6c63430008100033",
  "linkReferences": {},
  "deployedLinkReferences": {}
}