{
  "_format": "hh-sol-artifact-1",
  "contractName": "StknICO",
  "sourceName": "contracts/ICO.sol",
  "abi": [
    {
      "inputs": [
        {
          "internalType": "address",
          "name": "_token",
          "type": "address"
        },
        {
          "internalType": "uint256",
          "name": "_startTime",
          "type": "uint256"
        },
        {
          "internalType": "uint256",
          "name": "_endTime",
          "type": "uint256"
        }
      ],
      "stateMutability": "nonpayable",
      "type": "constructor"
    },
    {
      "anonymous": false,
      "inputs": [
        {
          "indexed": false,
          "internalType": "address",
          "name": "from",
          "type": "address"
        },
        {
          "indexed": false,
          "internalType": "uint256",
          "name": "value",
          "type": "uint256"
        }
      ],
      "name": "Claim",
      "type": "event"
    },
    {
      "anonymous": false,
      "inputs": [
        {
          "indexed": true,
          "internalType": "address",
          "name": "from",
          "type": "address"
        },
        {
          "indexed": false,
          "internalType": "uint256",
          "name": "value",
          "type": "uint256"
        }
      ],
      "name": "Deposit",
      "type": "event"
    },
    {
      "anonymous": false,
      "inputs": [
        {
          "indexed": false,
          "internalType": "uint256",
          "name": "amount",
          "type": "uint256"
        }
      ],
      "name": "OwnerWithdraw",
      "type": "event"
    },
    {
      "anonymous": false,
      "inputs": [
        {
          "indexed": false,
          "internalType": "address",
          "name": "from",
          "type": "address"
        },
        {
          "indexed": false,
          "internalType": "uint256",
          "name": "value",
          "type": "uint256"
        }
      ],
      "name": "Withdraw",
      "type": "event"
    },
    {
      "inputs": [],
      "name": "ICOWallet",
      "outputs": [
        {
          "internalType": "address payable",
          "name": "",
          "type": "address"
        }
      ],
      "stateMutability": "view",
      "type": "function"
    },
    {
      "inputs": [
        {
          "internalType": "address",
          "name": "_newOwner",
          "type": "address"
        }
      ],
      "name": "changeOwner",
      "outputs": [],
      "stateMutability": "nonpayable",
      "type": "function"
    },
    {
      "inputs": [],
      "name": "claim",
      "outputs": [],
      "stateMutability": "nonpayable",
      "type": "function"
    },
    {
      "inputs": [],
      "name": "deposit",
      "outputs": [],
      "stateMutability": "payable",
      "type": "function"
    },
    {
      "inputs": [
        {
          "internalType": "address",
          "name": "",
          "type": "address"
        }
      ],
      "name": "depositedAmountOf",
      "outputs": [
        {
          "internalType": "uint256",
          "name": "",
          "type": "uint256"
        }
      ],
      "stateMutability": "view",
      "type": "function"
    },
    {
      "inputs": [
        {
          "internalType": "address",
          "name": "addr",
          "type": "address"
        }
      ],
      "name": "getDepositedAmountOf",
      "outputs": [
        {
          "internalType": "uint256",
          "name": "",
          "type": "uint256"
        }
      ],
      "stateMutability": "view",
      "type": "function"
    },
    {
      "inputs": [],
      "name": "hardCap",
      "outputs": [
        {
          "internalType": "uint256",
          "name": "",
          "type": "uint256"
        }
      ],
      "stateMutability": "view",
      "type": "function"
    },
    {
      "inputs": [],
      "name": "icoEndTime",
      "outputs": [
        {
          "internalType": "uint256",
          "name": "",
          "type": "uint256"
        }
      ],
      "stateMutability": "view",
      "type": "function"
    },
    {
      "inputs": [],
      "name": "icoStartTime",
      "outputs": [
        {
          "internalType": "uint256",
          "name": "",
          "type": "uint256"
        }
      ],
      "stateMutability": "view",
      "type": "function"
    },
    {
      "inputs": [],
      "name": "maxInvestment",
      "outputs": [
        {
          "internalType": "uint256",
          "name": "",
          "type": "uint256"
        }
      ],
      "stateMutability": "view",
      "type": "function"
    },
    {
      "inputs": [],
      "name": "minInvestment",
      "outputs": [
        {
          "internalType": "uint256",
          "name": "",
          "type": "uint256"
        }
      ],
      "stateMutability": "view",
      "type": "function"
    },
    {
      "inputs": [],
      "name": "owner",
      "outputs": [
        {
          "internalType": "address",
          "name": "",
          "type": "address"
        }
      ],
      "stateMutability": "view",
      "type": "function"
    },
    {
      "inputs": [],
      "name": "ownerWithdraw",
      "outputs": [],
      "stateMutability": "nonpayable",
      "type": "function"
    },
    {
      "inputs": [],
      "name": "raisedAmount",
      "outputs": [
        {
          "internalType": "uint256",
          "name": "",
          "type": "uint256"
        }
      ],
      "stateMutability": "view",
      "type": "function"
    },
    {
      "inputs": [],
      "name": "softCap",
      "outputs": [
        {
          "internalType": "uint256",
          "name": "",
          "type": "uint256"
        }
      ],
      "stateMutability": "view",
      "type": "function"
    },
    {
      "inputs": [],
      "name": "token",
      "outputs": [
        {
          "internalType": "contract IERC20",
          "name": "",
          "type": "address"
        }
      ],
      "stateMutability": "view",
      "type": "function"
    },
    {
      "inputs": [],
      "name": "tokenPrice",
      "outputs": [
        {
          "internalType": "uint256",
          "name": "",
          "type": "uint256"
        }
      ],
      "stateMutability": "view",
      "type": "function"
    },
    {
      "inputs": [],
      "name": "withdraw",
      "outputs": [
        {
          "internalType": "bool",
          "name": "",
          "type": "bool"
        }
      ],
      "stateMutability": "nonpayable",
      "type": "function"
    },
    {
      "stateMutability": "payable",
      "type": "receive"
    }
  ],
  "bytecode": "0x6080604052655af3107a4000600355670de0b6b3a764000060045567016345785d8a000060055566038d7ea4c680006006556706f05b59d3b2000060075560006008553480156200004f57600080fd5b5060405162001603380380620016038339818101604052810190620000759190620001b2565b336000806101000a81548173ffffffffffffffffffffffffffffffffffffffff021916908373ffffffffffffffffffffffffffffffffffffffff1602179055508160098190555080600a8190555082600260006101000a81548173ffffffffffffffffffffffffffffffffffffffff021916908373ffffffffffffffffffffffffffffffffffffffff1602179055505050506200020e565b600080fd5b600073ffffffffffffffffffffffffffffffffffffffff82169050919050565b60006200013f8262000112565b9050919050565b620001518162000132565b81146200015d57600080fd5b50565b600081519050620001718162000146565b92915050565b6000819050919050565b6200018c8162000177565b81146200019857600080fd5b50565b600081519050620001ac8162000181565b92915050565b600080600060608486031215620001ce57620001cd6200010d565b5b6000620001de8682870162000160565b9350506020620001f1868287016200019b565b925050604062000204868287016200019b565b9150509250925092565b6113e5806200021e6000396000f3fe60806040526004361061010c5760003560e01c8063a6f9dae111610095578063c59ee1dc11610064578063c59ee1dc1461032f578063d0e30db01461035a578063f8d60d4314610364578063fb86a404146103a1578063fc0c546a146103cc57610113565b8063a6f9dae114610273578063a7c3d71b1461029c578063ae764df3146102c7578063be0f7be2146102f257610113565b80637e1055b6116100dc5780637e1055b61461019c5780637ff9b596146101c75780638ac2c680146101f25780638da5cb5b1461021d578063906a26e01461024857610113565b80622e1316146101185780633ccfd60b146101435780634311de8f1461016e5780634e71d92d1461018557610113565b3661011357005b600080fd5b34801561012457600080fd5b5061012d6103f7565b60405161013a9190610cf2565b60405180910390f35b34801561014f57600080fd5b506101586103fd565b6040516101659190610d28565b60405180910390f35b34801561017a57600080fd5b506101836105cd565b005b34801561019157600080fd5b5061019a610789565b005b3480156101a857600080fd5b506101b161091f565b6040516101be9190610cf2565b60405180910390f35b3480156101d357600080fd5b506101dc610925565b6040516101e99190610cf2565b60405180910390f35b3480156101fe57600080fd5b5061020761092b565b6040516102149190610cf2565b60405180910390f35b34801561022957600080fd5b50610232610931565b60405161023f9190610d84565b60405180910390f35b34801561025457600080fd5b5061025d610955565b60405161026a9190610cf2565b60405180910390f35b34801561027f57600080fd5b5061029a60048036038101906102959190610dd0565b61095b565b005b3480156102a857600080fd5b506102b1610a2c565b6040516102be9190610cf2565b60405180910390f35b3480156102d357600080fd5b506102dc610a32565b6040516102e99190610e1e565b60405180910390f35b3480156102fe57600080fd5b5061031960048036038101906103149190610dd0565b610a58565b6040516103269190610cf2565b60405180910390f35b34801561033b57600080fd5b50610344610aa1565b6040516103519190610cf2565b60405180910390f35b610362610aa7565b005b34801561037057600080fd5b5061038b60048036038101906103869190610dd0565b610c95565b6040516103989190610cf2565b60405180910390f35b3480156103ad57600080fd5b506103b6610cad565b6040516103c39190610cf2565b60405180910390f35b3480156103d857600080fd5b506103e1610cb3565b6040516103ee9190610e98565b60405180910390f35b60075481565b60004760088190555060055460085410801561041a5750600a5442115b610459576040517f08c379a000000000000000000000000000000000000000000000000000000000815260040161045090610f10565b60405180910390fd5b6000600b60003373ffffffffffffffffffffffffffffffffffffffff1673ffffffffffffffffffffffffffffffffffffffff168152602001908152602001600020549050600081116104e0576040517f08c379a00000000000000000000000000000000000000000000000000000000081526004016104d790610f7c565b60405180910390fd5b47811115610523576040517f08c379a000000000000000000000000000000000000000000000000000000000815260040161051a90610fe8565b60405180910390fd5b3373ffffffffffffffffffffffffffffffffffffffff168160405161054790611039565b60006040518083038185875af1925050503d8060008114610584576040519150601f19603f3d011682016040523d82523d6000602084013e610589565b606091505b5050507f884edad9ce6fa2440d8a54cc123490eb96d2768479d49ff9c7366125a942436433826040516105bd92919061104e565b60405180910390a1600191505090565b60008054906101000a900473ffffffffffffffffffffffffffffffffffffffff1673ffffffffffffffffffffffffffffffffffffffff163373ffffffffffffffffffffffffffffffffffffffff161461065b576040517f08c379a0000000000000000000000000000000000000000000000000000000008152600401610652906110c3565b60405180910390fd5b476008819055506005546008541180156106765750600a5442115b806106845750600454600854115b6106c3576040517f08c379a00000000000000000000000000000000000000000000000000000000081526004016106ba9061112f565b60405180910390fd5b60008054906101000a900473ffffffffffffffffffffffffffffffffffffffff1673ffffffffffffffffffffffffffffffffffffffff1660085460405161070990611039565b60006040518083038185875af1925050503d8060008114610746576040519150601f19603f3d011682016040523d82523d6000602084013e61074b565b606091505b5050507fa20809e697380eaea0fd13bf4d14b00e2ef29559ef361501189d3be2e9b0ec8560085460405161077f9190610cf2565b60405180910390a1565b476008819055506005546008541180156107a45750600a5442115b806107b25750600454600854115b6107f1576040517f08c379a00000000000000000000000000000000000000000000000000000000081526004016107e89061112f565b60405180910390fd5b6000600b60003373ffffffffffffffffffffffffffffffffffffffff1673ffffffffffffffffffffffffffffffffffffffff168152602001908152602001600020549050600260009054906101000a900473ffffffffffffffffffffffffffffffffffffffff1673ffffffffffffffffffffffffffffffffffffffff1663a9059cbb336003548461088291906111ad565b6040518363ffffffff1660e01b815260040161089f92919061104e565b6020604051808303816000875af11580156108be573d6000803e3d6000fd5b505050506040513d601f19601f820116820180604052508101906108e2919061120a565b507f47cee97cb7acd717b3c0aa1435d004cd5b3c8c57d70dbceb4e4458bbd60e39d4338260405161091492919061104e565b60405180910390a150565b600a5481565b60035481565b60065481565b60008054906101000a900473ffffffffffffffffffffffffffffffffffffffff1681565b60055481565b60008054906101000a900473ffffffffffffffffffffffffffffffffffffffff1673ffffffffffffffffffffffffffffffffffffffff163373ffffffffffffffffffffffffffffffffffffffff16146109e9576040517f08c379a00000000000000000000000000000000000000000000000000000000081526004016109e0906110c3565b60405180910390fd5b806000806101000a81548173ffffffffffffffffffffffffffffffffffffffff021916908373ffffffffffffffffffffffffffffffffffffffff16021790555050565b60095481565b600160009054906101000a900473ffffffffffffffffffffffffffffffffffffffff1681565b6000600b60008373ffffffffffffffffffffffffffffffffffffffff1673ffffffffffffffffffffffffffffffffffffffff168152602001908152602001600020549050919050565b60085481565b6009544210158015610aba5750600a5442105b610af9576040517f08c379a0000000000000000000000000000000000000000000000000000000008152600401610af090611283565b60405180910390fd5b6006543410158015610b57575060075434600b60003373ffffffffffffffffffffffffffffffffffffffff1673ffffffffffffffffffffffffffffffffffffffff16815260200190815260200160002054610b5491906112a3565b11155b610b96576040517f08c379a0000000000000000000000000000000000000000000000000000000008152600401610b8d90611323565b60405180910390fd5b4760088190555060045434600854610bae91906112a3565b1115610bef576040517f08c379a0000000000000000000000000000000000000000000000000000000008152600401610be69061138f565b60405180910390fd5b34600b60003373ffffffffffffffffffffffffffffffffffffffff1673ffffffffffffffffffffffffffffffffffffffff1681526020019081526020016000206000828254610c3e91906112a3565b925050819055503373ffffffffffffffffffffffffffffffffffffffff167fe1fffcc4923d04b559f4d29a8bfc6cda04eb5b0d3c460751c2402c5c5cc9109c34604051610c8b9190610cf2565b60405180910390a2565b600b6020528060005260406000206000915090505481565b60045481565b600260009054906101000a900473ffffffffffffffffffffffffffffffffffffffff1681565b6000819050919050565b610cec81610cd9565b82525050565b6000602082019050610d076000830184610ce3565b92915050565b60008115159050919050565b610d2281610d0d565b82525050565b6000602082019050610d3d6000830184610d19565b92915050565b600073ffffffffffffffffffffffffffffffffffffffff82169050919050565b6000610d6e82610d43565b9050919050565b610d7e81610d63565b82525050565b6000602082019050610d996000830184610d75565b92915050565b600080fd5b610dad81610d63565b8114610db857600080fd5b50565b600081359050610dca81610da4565b92915050565b600060208284031215610de657610de5610d9f565b5b6000610df484828501610dbb565b91505092915050565b6000610e0882610d43565b9050919050565b610e1881610dfd565b82525050565b6000602082019050610e336000830184610e0f565b92915050565b6000819050919050565b6000610e5e610e59610e5484610d43565b610e39565b610d43565b9050919050565b6000610e7082610e43565b9050919050565b6000610e8282610e65565b9050919050565b610e9281610e77565b82525050565b6000602082019050610ead6000830184610e89565b92915050565b600082825260208201905092915050565b7f4e4f545f574954484452415741424c4500000000000000000000000000000000600082015250565b6000610efa601083610eb3565b9150610f0582610ec4565b602082019050919050565b60006020820190508181036000830152610f2981610eed565b9050919050565b7f5a45524f5f4445504f5349540000000000000000000000000000000000000000600082015250565b6000610f66600c83610eb3565b9150610f7182610f30565b602082019050919050565b60006020820190508181036000830152610f9581610f59565b9050919050565b7f4558434545445f544f54414c5f4445504f534954000000000000000000000000600082015250565b6000610fd2601483610eb3565b9150610fdd82610f9c565b602082019050919050565b6000602082019050818103600083015261100181610fc5565b9050919050565b600081905092915050565b50565b6000611023600083611008565b915061102e82611013565b600082019050919050565b600061104482611016565b9150819050919050565b60006040820190506110636000830185610d75565b6110706020830184610ce3565b9392505050565b7f4f4e4c595f4f574e455200000000000000000000000000000000000000000000600082015250565b60006110ad600a83610eb3565b91506110b882611077565b602082019050919050565b600060208201905081810360008301526110dc816110a0565b9050919050565b7f4e4f545f434c41494d41424c4500000000000000000000000000000000000000600082015250565b6000611119600d83610eb3565b9150611124826110e3565b602082019050919050565b600060208201905081810360008301526111488161110c565b9050919050565b7f4e487b7100000000000000000000000000000000000000000000000000000000600052601260045260246000fd5b7f4e487b7100000000000000000000000000000000000000000000000000000000600052601160045260246000fd5b60006111b882610cd9565b91506111c383610cd9565b9250826111d3576111d261114f565b5b828204905092915050565b6111e781610d0d565b81146111f257600080fd5b50565b600081519050611204816111de565b92915050565b6000602082840312156112205761121f610d9f565b5b600061122e848285016111f5565b91505092915050565b7f49434f5f4e4f545f494e5f50524f475245535300000000000000000000000000600082015250565b600061126d601383610eb3565b915061127882611237565b602082019050919050565b6000602082019050818103600083015261129c81611260565b9050919050565b60006112ae82610cd9565b91506112b983610cd9565b92508282019050808211156112d1576112d061117e565b5b92915050565b7f436865636b204d696e20616e64204d617820496e766573746d656e7400000000600082015250565b600061130d601c83610eb3565b9150611318826112d7565b602082019050919050565b6000602082019050818103600083015261133c81611300565b9050919050565b7f53656e642077697468696e20686172646361702072616e676500000000000000600082015250565b6000611379601983610eb3565b915061138482611343565b602082019050919050565b600060208201905081810360008301526113a88161136c565b905091905056fea2646970667358221220964c0f897a8db2095f343d747676b37e321e50e6fff6cd4895fc4f9c3351988864736f6c63430008100033",
  "linkReferences": {},
  "deployedLinkReferences": {}
}